{
  "_format": "hh-sol-artifact-1",
  "contractName": "Lottery",
  "sourceName": "contracts/Lottery.sol",
  "abi": [
    {
      "inputs": [
        {
          "internalType": "address",
          "name": "vrfCoordinatorV2",
          "type": "address"
        },
        {
          "internalType": "bytes32",
          "name": "gasLane",
          "type": "bytes32"
        },
        {
          "internalType": "uint64",
          "name": "subscriptionId",
          "type": "uint64"
        },
        {
          "internalType": "uint32",
          "name": "callbackGasLimit",
          "type": "uint32"
        },
        {
          "internalType": "uint256",
          "name": "ticketPrice",
          "type": "uint256"
        },
        {
          "internalType": "uint256",
          "name": "playersRequired",
          "type": "uint256"
        }
      ],
      "stateMutability": "nonpayable",
      "type": "constructor"
    },
    {
      "inputs": [
        {
          "internalType": "address",
          "name": "have",
          "type": "address"
        },
        {
          "internalType": "address",
          "name": "want",
          "type": "address"
        }
      ],
      "name": "OnlyCoordinatorCanFulfill",
      "type": "error"
    },
    {
      "inputs": [],
      "name": "alreadyEmpty",
      "type": "error"
    },
    {
      "inputs": [
        {
          "internalType": "uint256",
          "name": "playersCount",
          "type": "uint256"
        },
        {
          "internalType": "uint256",
          "name": "playersRequired",
          "type": "uint256"
        }
      ],
      "name": "notEnoughPlayersToPickWinner",
      "type": "error"
    },
    {
      "inputs": [],
      "name": "notOpen",
      "type": "error"
    },
    {
      "inputs": [
        {
          "internalType": "uint256",
          "name": "amount",
          "type": "uint256"
        }
      ],
      "name": "sendMoreETHToBuyTicket",
      "type": "error"
    },
    {
      "inputs": [],
      "name": "transferFailed",
      "type": "error"
    },
    {
      "anonymous": false,
      "inputs": [
        {
          "indexed": false,
          "internalType": "uint256",
          "name": "prize",
          "type": "uint256"
        },
        {
          "indexed": false,
          "internalType": "address",
          "name": "from",
          "type": "address"
        }
      ],
      "name": "BuyTicket",
      "type": "event"
    },
    {
      "anonymous": false,
      "inputs": [
        {
          "indexed": false,
          "internalType": "enum Lottery.LotteryStatus",
          "name": "lotteryStatus",
          "type": "uint8"
        }
      ],
      "name": "LotteryCalculating",
      "type": "event"
    },
    {
      "anonymous": false,
      "inputs": [
        {
          "indexed": true,
          "internalType": "address",
          "name": "previousOwner",
          "type": "address"
        },
        {
          "indexed": true,
          "internalType": "address",
          "name": "newOwner",
          "type": "address"
        }
      ],
      "name": "OwnershipTransferred",
      "type": "event"
    },
    {
      "anonymous": false,
      "inputs": [
        {
          "indexed": false,
          "internalType": "uint256",
          "name": "prize",
          "type": "uint256"
        }
      ],
      "name": "PrizeToTransfer",
      "type": "event"
    },
    {
      "anonymous": false,
      "inputs": [
        {
          "indexed": false,
          "internalType": "address",
          "name": "winner",
          "type": "address"
        }
      ],
      "name": "PrizeTransfered",
      "type": "event"
    },
    {
      "anonymous": false,
      "inputs": [
        {
          "indexed": false,
          "internalType": "uint256",
          "name": "requestId",
          "type": "uint256"
        },
        {
          "indexed": false,
          "internalType": "uint256[]",
          "name": "randomWords",
          "type": "uint256[]"
        }
      ],
      "name": "RandomWords",
      "type": "event"
    },
    {
      "anonymous": false,
      "inputs": [
        {
          "indexed": false,
          "internalType": "enum Lottery.LotteryStatus",
          "name": "lotteryStatus",
          "type": "uint8"
        },
        {
          "indexed": false,
          "internalType": "address payable[]",
          "name": "s_players",
          "type": "address[]"
        }
      ],
      "name": "RestartLottery",
      "type": "event"
    },
    {
      "anonymous": false,
      "inputs": [
        {
          "indexed": false,
          "internalType": "uint256",
          "name": "price",
          "type": "uint256"
        },
        {
          "indexed": false,
          "internalType": "enum Lottery.LotteryStatus",
          "name": "lotteryStatus",
          "type": "uint8"
        },
        {
          "indexed": false,
          "internalType": "uint256",
          "name": "playersRequired",
          "type": "uint256"
        }
      ],
      "name": "StartLottery",
      "type": "event"
    },
    {
      "anonymous": false,
      "inputs": [
        {
          "indexed": false,
          "internalType": "uint256",
          "name": "playersRequired",
          "type": "uint256"
        }
      ],
      "name": "UpdatePlayersRequired",
      "type": "event"
    },
    {
      "anonymous": false,
      "inputs": [
        {
          "indexed": true,
          "internalType": "address",
          "name": "player",
          "type": "address"
        }
      ],
      "name": "WinnerPicked",
      "type": "event"
    },
    {
      "inputs": [],
      "name": "buyTicket",
      "outputs": [],
      "stateMutability": "payable",
      "type": "function"
    },
    {
      "inputs": [],
      "name": "getLotteryStatus",
      "outputs": [
        {
          "internalType": "enum Lottery.LotteryStatus",
          "name": "",
          "type": "uint8"
        }
      ],
      "stateMutability": "view",
      "type": "function"
    },
    {
      "inputs": [],
      "name": "getNumberOfPlayers",
      "outputs": [
        {
          "internalType": "uint256",
          "name": "",
          "type": "uint256"
        }
      ],
      "stateMutability": "view",
      "type": "function"
    },
    {
      "inputs": [
        {
          "internalType": "uint256",
          "name": "index",
          "type": "uint256"
        }
      ],
      "name": "getPlayer",
      "outputs": [
        {
          "internalType": "address",
          "name": "",
          "type": "address"
        }
      ],
      "stateMutability": "view",
      "type": "function"
    },
    {
      "inputs": [],
      "name": "getPlayers",
      "outputs": [
        {
          "internalType": "address payable[]",
          "name": "",
          "type": "address[]"
        }
      ],
      "stateMutability": "view",
      "type": "function"
    },
    {
      "inputs": [],
      "name": "getPlayersRequired",
      "outputs": [
        {
          "internalType": "uint256",
          "name": "",
          "type": "uint256"
        }
      ],
      "stateMutability": "view",
      "type": "function"
    },
    {
      "inputs": [],
      "name": "getPrize",
      "outputs": [
        {
          "internalType": "uint256",
          "name": "",
          "type": "uint256"
        }
      ],
      "stateMutability": "view",
      "type": "function"
    },
    {
      "inputs": [],
      "name": "getRandomWinner",
      "outputs": [],
      "stateMutability": "nonpayable",
      "type": "function"
    },
    {
      "inputs": [],
      "name": "getTicketPrice",
      "outputs": [
        {
          "internalType": "uint256",
          "name": "",
          "type": "uint256"
        }
      ],
      "stateMutability": "view",
      "type": "function"
    },
    {
      "inputs": [],
      "name": "getWinner",
      "outputs": [
        {
          "internalType": "address",
          "name": "",
          "type": "address"
        }
      ],
      "stateMutability": "view",
      "type": "function"
    },
    {
      "inputs": [],
      "name": "owner",
      "outputs": [
        {
          "internalType": "address",
          "name": "",
          "type": "address"
        }
      ],
      "stateMutability": "view",
      "type": "function"
    },
    {
      "inputs": [
        {
          "internalType": "uint256",
          "name": "requestId",
          "type": "uint256"
        },
        {
          "internalType": "uint256[]",
          "name": "randomWords",
          "type": "uint256[]"
        }
      ],
      "name": "rawFulfillRandomWords",
      "outputs": [],
      "stateMutability": "nonpayable",
      "type": "function"
    },
    {
      "inputs": [],
      "name": "renounceOwnership",
      "outputs": [],
      "stateMutability": "nonpayable",
      "type": "function"
    },
    {
      "inputs": [
        {
          "internalType": "uint256",
          "name": "playersRequired",
          "type": "uint256"
        }
      ],
      "name": "setPlayersRquired",
      "outputs": [],
      "stateMutability": "nonpayable",
      "type": "function"
    },
    {
      "inputs": [
        {
          "internalType": "address",
          "name": "newOwner",
          "type": "address"
        }
      ],
      "name": "transferOwnership",
      "outputs": [],
      "stateMutability": "nonpayable",
      "type": "function"
    }
  ],
  "bytecode": "0x6101406040523480156200001257600080fd5b5060405162002140380380620021408339818101604052810190620000389190620003cb565b858073ffffffffffffffffffffffffffffffffffffffff1660808173ffffffffffffffffffffffffffffffffffffffff1681525050506200008e620000826200015760201b60201c565b6200015f60201b60201c565b816101208181525050806001819055506000600360146101000a81548160ff02191690836001811115620000c757620000c662000467565b5b02179055508573ffffffffffffffffffffffffffffffffffffffff1660a08173ffffffffffffffffffffffffffffffffffffffff16815250508460c081815250508367ffffffffffffffff1660e08167ffffffffffffffff16815250508263ffffffff166101008163ffffffff16815250506200014b82826200022360201b60201c565b50505050505062000535565b600033905090565b60008060009054906101000a900473ffffffffffffffffffffffffffffffffffffffff169050816000806101000a81548173ffffffffffffffffffffffffffffffffffffffff021916908373ffffffffffffffffffffffffffffffffffffffff1602179055508173ffffffffffffffffffffffffffffffffffffffff168173ffffffffffffffffffffffffffffffffffffffff167f8be0079c531659141344cd1fd0a4f28419497f9722a3daafe3b4186f6b6457e060405160405180910390a35050565b7f0760b8889cf8e7362de68dce721ac0ee5a8bd290c87d7c5344e3bd7706cbc3ae826000836040516200025993929190620004f8565b60405180910390a15050565b600080fd5b600073ffffffffffffffffffffffffffffffffffffffff82169050919050565b600062000297826200026a565b9050919050565b620002a9816200028a565b8114620002b557600080fd5b50565b600081519050620002c9816200029e565b92915050565b6000819050919050565b620002e481620002cf565b8114620002f057600080fd5b50565b6000815190506200030481620002d9565b92915050565b600067ffffffffffffffff82169050919050565b62000329816200030a565b81146200033557600080fd5b50565b60008151905062000349816200031e565b92915050565b600063ffffffff82169050919050565b6200036a816200034f565b81146200037657600080fd5b50565b6000815190506200038a816200035f565b92915050565b6000819050919050565b620003a58162000390565b8114620003b157600080fd5b50565b600081519050620003c5816200039a565b92915050565b60008060008060008060c08789031215620003eb57620003ea62000265565b5b6000620003fb89828a01620002b8565b96505060206200040e89828a01620002f3565b95505060406200042189828a0162000338565b94505060606200043489828a0162000379565b93505060806200044789828a01620003b4565b92505060a06200045a89828a01620003b4565b9150509295509295509295565b7f4e487b7100000000000000000000000000000000000000000000000000000000600052602160045260246000fd5b620004a18162000390565b82525050565b60028110620004bb57620004ba62000467565b5b50565b6000819050620004ce82620004a7565b919050565b6000620004e082620004be565b9050919050565b620004f281620004d3565b82525050565b60006060820190506200050f600083018662000496565b6200051e6020830185620004e7565b6200052d604083018462000496565b949350505050565b60805160a05160c05160e0516101005161012051611bad62000593600039600081816106dd0152610881015260006105cb015260006105a8015260006105870152600061054b015260008181610337015261038b0152611bad6000f3fe6080604052600436106100e85760003560e01c80638da5cb5b1161008a578063e55ae4e811610059578063e55ae4e81461029a578063edca914c146102d7578063f2fde38b146102e1578063fd6673f51461030a576100e8565b80638da5cb5b146101ee5780638e7ea5b214610219578063c34f6b0d14610244578063d5249e231461026f576100e8565b80636a876659116100c65780636a87665914610158578063715018a61461018157806387bb7ae0146101985780638b5b9ccc146101c3576100e8565b80631fe543e3146100ed5780632b6524cd146101165780636694f1a514610141575b600080fd5b3480156100f957600080fd5b50610114600480360381019061010f919061125b565b610335565b005b34801561012257600080fd5b5061012b6103f5565b604051610138919061132e565b60405180910390f35b34801561014d57600080fd5b5061015661040c565b005b34801561016457600080fd5b5061017f600480360381019061017a9190611349565b61067c565b005b34801561018d57600080fd5b506101966106c5565b005b3480156101a457600080fd5b506101ad6106d9565b6040516101ba9190611385565b60405180910390f35b3480156101cf57600080fd5b506101d8610701565b6040516101e59190611490565b60405180910390f35b3480156101fa57600080fd5b5061020361078f565b60405161021091906114d3565b60405180910390f35b34801561022557600080fd5b5061022e6107b8565b60405161023b91906114d3565b60405180910390f35b34801561025057600080fd5b506102596107e2565b6040516102669190611385565b60405180910390f35b34801561027b57600080fd5b5061028461082d565b6040516102919190611385565b60405180910390f35b3480156102a657600080fd5b506102c160048036038101906102bc9190611349565b610837565b6040516102ce91906114d3565b60405180910390f35b6102df61087f565b005b3480156102ed57600080fd5b506103086004803603810190610303919061151a565b6109ef565b005b34801561031657600080fd5b5061031f610a73565b60405161032c9190611385565b60405180910390f35b7f000000000000000000000000000000000000000000000000000000000000000073ffffffffffffffffffffffffffffffffffffffff163373ffffffffffffffffffffffffffffffffffffffff16146103e757337f00000000000000000000000000000000000000000000000000000000000000006040517f1cf993f40000000000000000000000000000000000000000000000000000000081526004016103de929190611547565b60405180910390fd5b6103f18282610a80565b5050565b6000600360149054906101000a900460ff16905090565b610414610abd565b6001546002805490501015610469576002805490506001546040517f1049bdef000000000000000000000000000000000000000000000000000000008152600401610460929190611570565b60405180910390fd5b6000600181111561047d5761047c6112b7565b5b600360149054906101000a900460ff16600181111561049f5761049e6112b7565b5b146104d6576040517f05835fed00000000000000000000000000000000000000000000000000000000815260040160405180910390fd5b6001600360146101000a81548160ff021916908360018111156104fc576104fb6112b7565b5b02179055507f3e8ee20ed6a9cf96ca45af43673864c60fbbea99cb16048f812b0669b97edc5c600360149054906101000a900460ff1660405161053f919061132e565b60405180910390a160007f000000000000000000000000000000000000000000000000000000000000000073ffffffffffffffffffffffffffffffffffffffff16635d3b1d307f00000000000000000000000000000000000000000000000000000000000000007f000000000000000000000000000000000000000000000000000000000000000060037f000000000000000000000000000000000000000000000000000000000000000060016040518663ffffffff1660e01b815260040161060c959493929190611611565b602060405180830381600087803b15801561062657600080fd5b505af115801561063a573d6000803e3d6000fd5b505050506040513d601f19601f8201168201806040525081019061065e9190611679565b905061066981610b3b565b610671610c73565b610679610e12565b50565b610684610abd565b806001819055507f27f1ac630ee463443a9c262a368d2fb802c61c0125c599efc7c553e05039e039816040516106ba9190611385565b60405180910390a150565b6106cd610abd565b6106d76000610f19565b565b60007f0000000000000000000000000000000000000000000000000000000000000000905090565b6060600280548060200260200160405190810160405280929190818152602001828054801561078557602002820191906000526020600020905b8160009054906101000a900473ffffffffffffffffffffffffffffffffffffffff1673ffffffffffffffffffffffffffffffffffffffff168152602001906001019080831161073b575b5050505050905090565b60008060009054906101000a900473ffffffffffffffffffffffffffffffffffffffff16905090565b6000600360009054906101000a900473ffffffffffffffffffffffffffffffffffffffff16905090565b600080600280549050111561082557600047905061081d606461080f604b84610fdd90919063ffffffff16565b610ff390919063ffffffff16565b91505061082a565b600090505b90565b6000600154905090565b60006002828154811061084d5761084c6116a6565b5b9060005260206000200160009054906101000a900473ffffffffffffffffffffffffffffffffffffffff169050919050565b7f00000000000000000000000000000000000000000000000000000000000000003410156108e457346040517fbdb6cb950000000000000000000000000000000000000000000000000000000081526004016108db9190611385565b60405180910390fd5b600060018111156108f8576108f76112b7565b5b600360149054906101000a900460ff16600181111561091a576109196112b7565b5b14610951576040517f05835fed00000000000000000000000000000000000000000000000000000000815260040160405180910390fd5b6002339080600181540180825580915050600190039060005260206000200160009091909190916101000a81548173ffffffffffffffffffffffffffffffffffffffff021916908373ffffffffffffffffffffffffffffffffffffffff1602179055507f98b1ba5f454cea2e686f54332a7b0f31faa0ffe6644247ffb84185f75e029a5234336040516109e59291906116d5565b60405180910390a1565b6109f7610abd565b600073ffffffffffffffffffffffffffffffffffffffff168173ffffffffffffffffffffffffffffffffffffffff161415610a67576040517f08c379a0000000000000000000000000000000000000000000000000000000008152600401610a5e90611781565b60405180910390fd5b610a7081610f19565b50565b6000600280549050905090565b7f3a3acc98a060e7247c1321bbab4a117cfd1490c7679a263098c6eb94ac03fef38282604051610ab192919061185f565b60405180910390a15050565b610ac5611009565b73ffffffffffffffffffffffffffffffffffffffff16610ae361078f565b73ffffffffffffffffffffffffffffffffffffffff1614610b39576040517f08c379a0000000000000000000000000000000000000000000000000000000008152600401610b30906118db565b60405180910390fd5b565b6000811015610b76576040517fe465903e00000000000000000000000000000000000000000000000000000000815260040160405180910390fd5b600060028054905082610b89919061192a565b905060028181548110610b9f57610b9e6116a6565b5b9060005260206000200160009054906101000a900473ffffffffffffffffffffffffffffffffffffffff16600360006101000a81548173ffffffffffffffffffffffffffffffffffffffff021916908373ffffffffffffffffffffffffffffffffffffffff160217905550600360009054906101000a900473ffffffffffffffffffffffffffffffffffffffff1673ffffffffffffffffffffffffffffffffffffffff167f5b690ec4a06fe979403046eaeea5b3ce38524683c3001f662c8b5a829632f7df60405160405180910390a25050565b6000610c7d6107e2565b90507fc50e90a1de448433e57f038cdceb18a2e33676a4c934a23aa1a4608d7046535381604051610cae9190611385565b60405180910390a160008111610cf0576040517fe465903e00000000000000000000000000000000000000000000000000000000815260040160405180910390fd5b6000600360009054906101000a900473ffffffffffffffffffffffffffffffffffffffff1673ffffffffffffffffffffffffffffffffffffffff1682604051610d389061198c565b60006040518083038185875af1925050503d8060008114610d75576040519150601f19603f3d011682016040523d82523d6000602084013e610d7a565b606091505b5050905080610db5576040517fe465903e00000000000000000000000000000000000000000000000000000000815260040160405180910390fd5b7ff9a803d02e24ab98f90758be8af7314f06701a6338c0df1e4da43ecc358b30f8600360009054906101000a900473ffffffffffffffffffffffffffffffffffffffff16604051610e0691906114d3565b60405180910390a15050565b600060028054905011610e51576040517f10ee4b8d00000000000000000000000000000000000000000000000000000000815260040160405180910390fd5b600067ffffffffffffffff811115610e6c57610e6b611118565b5b604051908082528060200260200182016040528015610e9a5781602001602082028036833780820191505090505b5060029080519060200190610eb0929190611011565b506000600360146101000a81548160ff02191690836001811115610ed757610ed66112b7565b5b02179055507fbac5f226df9205877b86f5196961cda6eaef841d8d576d60ea7ddcd73acdc5ef60006002604051610f0f929190611a8d565b60405180910390a1565b60008060009054906101000a900473ffffffffffffffffffffffffffffffffffffffff169050816000806101000a81548173ffffffffffffffffffffffffffffffffffffffff021916908373ffffffffffffffffffffffffffffffffffffffff1602179055508173ffffffffffffffffffffffffffffffffffffffff168173ffffffffffffffffffffffffffffffffffffffff167f8be0079c531659141344cd1fd0a4f28419497f9722a3daafe3b4186f6b6457e060405160405180910390a35050565b60008183610feb9190611aec565b905092915050565b600081836110019190611b46565b905092915050565b600033905090565b82805482825590600052602060002090810192821561108a579160200282015b828111156110895782518260006101000a81548173ffffffffffffffffffffffffffffffffffffffff021916908373ffffffffffffffffffffffffffffffffffffffff16021790555091602001919060010190611031565b5b509050611097919061109b565b5090565b5b808211156110b457600081600090555060010161109c565b5090565b6000604051905090565b600080fd5b600080fd5b6000819050919050565b6110df816110cc565b81146110ea57600080fd5b50565b6000813590506110fc816110d6565b92915050565b600080fd5b6000601f19601f8301169050919050565b7f4e487b7100000000000000000000000000000000000000000000000000000000600052604160045260246000fd5b61115082611107565b810181811067ffffffffffffffff8211171561116f5761116e611118565b5b80604052505050565b60006111826110b8565b905061118e8282611147565b919050565b600067ffffffffffffffff8211156111ae576111ad611118565b5b602082029050602081019050919050565b600080fd5b60006111d76111d284611193565b611178565b905080838252602082019050602084028301858111156111fa576111f96111bf565b5b835b81811015611223578061120f88826110ed565b8452602084019350506020810190506111fc565b5050509392505050565b600082601f83011261124257611241611102565b5b81356112528482602086016111c4565b91505092915050565b60008060408385031215611272576112716110c2565b5b6000611280858286016110ed565b925050602083013567ffffffffffffffff8111156112a1576112a06110c7565b5b6112ad8582860161122d565b9150509250929050565b7f4e487b7100000000000000000000000000000000000000000000000000000000600052602160045260246000fd5b600281106112f7576112f66112b7565b5b50565b6000819050611308826112e6565b919050565b6000611318826112fa565b9050919050565b6113288161130d565b82525050565b6000602082019050611343600083018461131f565b92915050565b60006020828403121561135f5761135e6110c2565b5b600061136d848285016110ed565b91505092915050565b61137f816110cc565b82525050565b600060208201905061139a6000830184611376565b92915050565b600081519050919050565b600082825260208201905092915050565b6000819050602082019050919050565b600073ffffffffffffffffffffffffffffffffffffffff82169050919050565b60006113f7826113cc565b9050919050565b611407816113ec565b82525050565b600061141983836113fe565b60208301905092915050565b6000602082019050919050565b600061143d826113a0565b61144781856113ab565b9350611452836113bc565b8060005b8381101561148357815161146a888261140d565b975061147583611425565b925050600181019050611456565b5085935050505092915050565b600060208201905081810360008301526114aa8184611432565b905092915050565b60006114bd826113cc565b9050919050565b6114cd816114b2565b82525050565b60006020820190506114e860008301846114c4565b92915050565b6114f7816114b2565b811461150257600080fd5b50565b600081359050611514816114ee565b92915050565b6000602082840312156115305761152f6110c2565b5b600061153e84828501611505565b91505092915050565b600060408201905061155c60008301856114c4565b61156960208301846114c4565b9392505050565b60006040820190506115856000830185611376565b6115926020830184611376565b9392505050565b6000819050919050565b6115ac81611599565b82525050565b600067ffffffffffffffff82169050919050565b6115cf816115b2565b82525050565b600061ffff82169050919050565b6115ec816115d5565b82525050565b600063ffffffff82169050919050565b61160b816115f2565b82525050565b600060a08201905061162660008301886115a3565b61163360208301876115c6565b61164060408301866115e3565b61164d6060830185611602565b61165a6080830184611602565b9695505050505050565b600081519050611673816110d6565b92915050565b60006020828403121561168f5761168e6110c2565b5b600061169d84828501611664565b91505092915050565b7f4e487b7100000000000000000000000000000000000000000000000000000000600052603260045260246000fd5b60006040820190506116ea6000830185611376565b6116f760208301846114c4565b9392505050565b600082825260208201905092915050565b7f4f776e61626c653a206e6577206f776e657220697320746865207a65726f206160008201527f6464726573730000000000000000000000000000000000000000000000000000602082015250565b600061176b6026836116fe565b91506117768261170f565b604082019050919050565b6000602082019050818103600083015261179a8161175e565b9050919050565b600081519050919050565b600082825260208201905092915050565b6000819050602082019050919050565b6117d6816110cc565b82525050565b60006117e883836117cd565b60208301905092915050565b6000602082019050919050565b600061180c826117a1565b61181681856117ac565b9350611821836117bd565b8060005b8381101561185257815161183988826117dc565b9750611844836117f4565b925050600181019050611825565b5085935050505092915050565b60006040820190506118746000830185611376565b81810360208301526118868184611801565b90509392505050565b7f4f776e61626c653a2063616c6c6572206973206e6f7420746865206f776e6572600082015250565b60006118c56020836116fe565b91506118d08261188f565b602082019050919050565b600060208201905081810360008301526118f4816118b8565b9050919050565b7f4e487b7100000000000000000000000000000000000000000000000000000000600052601260045260246000fd5b6000611935826110cc565b9150611940836110cc565b9250826119505761194f6118fb565b5b828206905092915050565b600081905092915050565b50565b600061197660008361195b565b915061198182611966565b600082019050919050565b600061199782611969565b9150819050919050565b600081549050919050565b60008190508160005260206000209050919050565b60008160001c9050919050565b600073ffffffffffffffffffffffffffffffffffffffff82169050919050565b6000611a016119fc836119c1565b6119ce565b9050919050565b6000611a1482546119ee565b9050919050565b6000600182019050919050565b6000611a33826119a1565b611a3d81856113ab565b9350611a48836119ac565b8060005b83811015611a8057611a5d82611a08565b611a67888261140d565b9750611a7283611a1b565b925050600181019050611a4c565b5085935050505092915050565b6000604082019050611aa2600083018561131f565b8181036020830152611ab48184611a28565b90509392505050565b7f4e487b7100000000000000000000000000000000000000000000000000000000600052601160045260246000fd5b6000611af7826110cc565b9150611b02836110cc565b9250817fffffffffffffffffffffffffffffffffffffffffffffffffffffffffffffffff0483118215151615611b3b57611b3a611abd565b5b828202905092915050565b6000611b51826110cc565b9150611b5c836110cc565b925082611b6c57611b6b6118fb565b5b82820490509291505056fea2646970667358221220cb206190bea19e86d3161d27f06e61d5b94f4a6683fb75ff1343330d338f76b564736f6c63430008090033",
  "linkReferences": {},
  "deployedLinkReferences": {}
}